{
  "address": "0xF6EB0F927f801c93569EB71257D4231F4C03257E",
  "abi": [
    {
      "inputs": [
        {
          "internalType": "address",
          "name": "_endpoint",
          "type": "address"
        },
        {
          "internalType": "address",
          "name": "_owner",
          "type": "address"
        }
      ],
      "stateMutability": "nonpayable",
      "type": "constructor"
    },
    {
      "inputs": [],
      "name": "InvalidDelegate",
      "type": "error"
    },
    {
      "inputs": [],
      "name": "InvalidEndpointCall",
      "type": "error"
    },
    {
      "inputs": [
        {
          "internalType": "uint16",
          "name": "optionType",
          "type": "uint16"
        }
      ],
      "name": "InvalidOptionType",
      "type": "error"
    },
    {
      "inputs": [
        {
          "internalType": "bytes",
          "name": "options",
          "type": "bytes"
        }
      ],
      "name": "InvalidOptions",
      "type": "error"
    },
    {
      "inputs": [],
      "name": "LzTokenUnavailable",
      "type": "error"
    },
    {
      "inputs": [
        {
          "internalType": "uint32",
          "name": "eid",
          "type": "uint32"
        }
      ],
      "name": "NoPeer",
      "type": "error"
    },
    {
      "inputs": [
        {
          "internalType": "uint256",
          "name": "msgValue",
          "type": "uint256"
        }
      ],
      "name": "NotEnoughNative",
      "type": "error"
    },
    {
      "inputs": [
        {
          "internalType": "address",
          "name": "addr",
          "type": "address"
        }
      ],
      "name": "OnlyEndpoint",
      "type": "error"
    },
    {
      "inputs": [
        {
          "internalType": "uint32",
          "name": "eid",
          "type": "uint32"
        },
        {
          "internalType": "bytes32",
          "name": "sender",
          "type": "bytes32"
        }
      ],
      "name": "OnlyPeer",
      "type": "error"
    },
    {
      "inputs": [
        {
          "internalType": "address",
          "name": "owner",
          "type": "address"
        }
      ],
      "name": "OwnableInvalidOwner",
      "type": "error"
    },
    {
      "inputs": [
        {
          "internalType": "address",
          "name": "account",
          "type": "address"
        }
      ],
      "name": "OwnableUnauthorizedAccount",
      "type": "error"
    },
    {
      "inputs": [
        {
          "internalType": "uint8",
          "name": "bits",
          "type": "uint8"
        },
        {
          "internalType": "uint256",
          "name": "value",
          "type": "uint256"
        }
      ],
      "name": "SafeCastOverflowedUintDowncast",
      "type": "error"
    },
    {
      "inputs": [
        {
          "internalType": "address",
          "name": "token",
          "type": "address"
        }
      ],
      "name": "SafeERC20FailedOperation",
      "type": "error"
    },
    {
      "anonymous": false,
      "inputs": [
        {
          "components": [
            {
              "internalType": "uint32",
              "name": "eid",
              "type": "uint32"
            },
            {
              "internalType": "uint16",
              "name": "msgType",
              "type": "uint16"
            },
            {
              "internalType": "bytes",
              "name": "options",
              "type": "bytes"
            }
          ],
          "indexed": false,
          "internalType": "struct EnforcedOptionParam[]",
          "name": "_enforcedOptions",
          "type": "tuple[]"
        }
      ],
      "name": "EnforcedOptionSet",
      "type": "event"
    },
    {
      "anonymous": false,
      "inputs": [
        {
          "indexed": true,
          "internalType": "address",
          "name": "previousOwner",
          "type": "address"
        },
        {
          "indexed": true,
          "internalType": "address",
          "name": "newOwner",
          "type": "address"
        }
      ],
      "name": "OwnershipTransferred",
      "type": "event"
    },
    {
      "anonymous": false,
      "inputs": [
        {
          "indexed": false,
          "internalType": "uint32",
          "name": "eid",
          "type": "uint32"
        },
        {
          "indexed": false,
          "internalType": "bytes32",
          "name": "peer",
          "type": "bytes32"
        }
      ],
      "name": "PeerSet",
      "type": "event"
    },
    {
      "inputs": [],
      "name": "SEND",
      "outputs": [
        {
          "internalType": "uint16",
          "name": "",
          "type": "uint16"
        }
      ],
      "stateMutability": "view",
      "type": "function"
    },
    {
      "inputs": [
        {
          "components": [
            {
              "internalType": "uint32",
              "name": "srcEid",
              "type": "uint32"
            },
            {
              "internalType": "bytes32",
              "name": "sender",
              "type": "bytes32"
            },
            {
              "internalType": "uint64",
              "name": "nonce",
              "type": "uint64"
            }
          ],
          "internalType": "struct Origin",
          "name": "origin",
          "type": "tuple"
        }
      ],
      "name": "allowInitializePath",
      "outputs": [
        {
          "internalType": "bool",
          "name": "",
          "type": "bool"
        }
      ],
      "stateMutability": "view",
      "type": "function"
    },
    {
      "inputs": [
        {
          "internalType": "uint32",
          "name": "_eid",
          "type": "uint32"
        },
        {
          "internalType": "uint16",
          "name": "_msgType",
          "type": "uint16"
        },
        {
          "internalType": "bytes",
          "name": "_extraOptions",
          "type": "bytes"
        }
      ],
      "name": "combineOptions",
      "outputs": [
        {
          "internalType": "bytes",
          "name": "",
          "type": "bytes"
        }
      ],
      "stateMutability": "view",
      "type": "function"
    },
    {
      "inputs": [],
      "name": "endpoint",
      "outputs": [
        {
          "internalType": "contract ILayerZeroEndpointV2",
          "name": "",
          "type": "address"
        }
      ],
      "stateMutability": "view",
      "type": "function"
    },
    {
      "inputs": [
        {
          "internalType": "uint32",
          "name": "eid",
          "type": "uint32"
        },
        {
          "internalType": "uint16",
          "name": "msgType",
          "type": "uint16"
        }
      ],
      "name": "enforcedOptions",
      "outputs": [
        {
          "internalType": "bytes",
          "name": "enforcedOption",
          "type": "bytes"
        }
      ],
      "stateMutability": "view",
      "type": "function"
    },
    {
      "inputs": [
        {
          "components": [
            {
              "internalType": "uint32",
              "name": "srcEid",
              "type": "uint32"
            },
            {
              "internalType": "bytes32",
              "name": "sender",
              "type": "bytes32"
            },
            {
              "internalType": "uint64",
              "name": "nonce",
              "type": "uint64"
            }
          ],
          "internalType": "struct Origin",
          "name": "",
          "type": "tuple"
        },
        {
          "internalType": "bytes",
          "name": "",
          "type": "bytes"
        },
        {
          "internalType": "address",
          "name": "_sender",
          "type": "address"
        }
      ],
      "name": "isComposeMsgSender",
      "outputs": [
        {
          "internalType": "bool",
          "name": "",
          "type": "bool"
        }
      ],
      "stateMutability": "view",
      "type": "function"
    },
    {
      "inputs": [],
      "name": "lastMessage",
      "outputs": [
        {
          "internalType": "string",
          "name": "",
          "type": "string"
        }
      ],
      "stateMutability": "view",
      "type": "function"
    },
    {
      "inputs": [
        {
          "components": [
            {
              "internalType": "uint32",
              "name": "srcEid",
              "type": "uint32"
            },
            {
              "internalType": "bytes32",
              "name": "sender",
              "type": "bytes32"
            },
            {
              "internalType": "uint64",
              "name": "nonce",
              "type": "uint64"
            }
          ],
          "internalType": "struct Origin",
          "name": "_origin",
          "type": "tuple"
        },
        {
          "internalType": "bytes32",
          "name": "_guid",
          "type": "bytes32"
        },
        {
          "internalType": "bytes",
          "name": "_message",
          "type": "bytes"
        },
        {
          "internalType": "address",
          "name": "_executor",
          "type": "address"
        },
        {
          "internalType": "bytes",
          "name": "_extraData",
          "type": "bytes"
        }
      ],
      "name": "lzReceive",
      "outputs": [],
      "stateMutability": "payable",
      "type": "function"
    },
    {
      "inputs": [
        {
          "internalType": "uint32",
          "name": "",
          "type": "uint32"
        },
        {
          "internalType": "bytes32",
          "name": "",
          "type": "bytes32"
        }
      ],
      "name": "nextNonce",
      "outputs": [
        {
          "internalType": "uint64",
          "name": "nonce",
          "type": "uint64"
        }
      ],
      "stateMutability": "view",
      "type": "function"
    },
    {
      "inputs": [],
      "name": "oAppVersion",
      "outputs": [
        {
          "internalType": "uint64",
          "name": "senderVersion",
          "type": "uint64"
        },
        {
          "internalType": "uint64",
          "name": "receiverVersion",
          "type": "uint64"
        }
      ],
      "stateMutability": "pure",
      "type": "function"
    },
    {
      "inputs": [],
      "name": "owner",
      "outputs": [
        {
          "internalType": "address",
          "name": "",
          "type": "address"
        }
      ],
      "stateMutability": "view",
      "type": "function"
    },
    {
      "inputs": [
        {
          "internalType": "uint32",
          "name": "eid",
          "type": "uint32"
        }
      ],
      "name": "peers",
      "outputs": [
        {
          "internalType": "bytes32",
          "name": "peer",
          "type": "bytes32"
        }
      ],
      "stateMutability": "view",
      "type": "function"
    },
    {
      "inputs": [
        {
          "internalType": "uint32",
          "name": "_dstEid",
          "type": "uint32"
        },
        {
          "internalType": "string",
          "name": "_string",
          "type": "string"
        },
        {
          "internalType": "bytes",
          "name": "_options",
          "type": "bytes"
        },
        {
          "internalType": "bool",
          "name": "_payInLzToken",
          "type": "bool"
        }
      ],
      "name": "quoteSendString",
      "outputs": [
        {
          "components": [
            {
              "internalType": "uint256",
              "name": "nativeFee",
              "type": "uint256"
            },
            {
              "internalType": "uint256",
              "name": "lzTokenFee",
              "type": "uint256"
            }
          ],
          "internalType": "struct MessagingFee",
          "name": "fee",
          "type": "tuple"
        }
      ],
      "stateMutability": "view",
      "type": "function"
    },
    {
      "inputs": [
        {
          "internalType": "uint32",
          "name": "_dstEid",
          "type": "uint32"
        },
        {
          "internalType": "string",
          "name": "_string",
          "type": "string"
        },
        {
          "internalType": "uint128",
          "name": "_nativeDropAmount",
          "type": "uint128"
        },
        {
          "internalType": "address",
          "name": "_receiver",
          "type": "address"
        },
        {
          "internalType": "bool",
          "name": "_payInLzToken",
          "type": "bool"
        }
      ],
      "name": "quoteSendStringWithNativeDrop",
      "outputs": [
        {
          "components": [
            {
              "internalType": "uint256",
              "name": "nativeFee",
              "type": "uint256"
            },
            {
              "internalType": "uint256",
              "name": "lzTokenFee",
              "type": "uint256"
            }
          ],
          "internalType": "struct MessagingFee",
          "name": "fee",
          "type": "tuple"
        }
      ],
      "stateMutability": "view",
      "type": "function"
    },
    {
      "inputs": [],
      "name": "renounceOwnership",
      "outputs": [],
      "stateMutability": "nonpayable",
      "type": "function"
    },
    {
      "inputs": [
        {
          "internalType": "uint32",
          "name": "_dstEid",
          "type": "uint32"
        },
        {
          "internalType": "string",
          "name": "_string",
          "type": "string"
        },
        {
          "internalType": "bytes",
          "name": "_options",
          "type": "bytes"
        }
      ],
      "name": "sendString",
      "outputs": [],
      "stateMutability": "payable",
      "type": "function"
    },
    {
      "inputs": [
        {
          "internalType": "uint32",
          "name": "_dstEid",
          "type": "uint32"
        },
        {
          "internalType": "string",
          "name": "_string",
          "type": "string"
        },
        {
          "internalType": "uint128",
          "name": "_nativeDropAmount",
          "type": "uint128"
        },
        {
          "internalType": "address",
          "name": "_receiver",
          "type": "address"
        }
      ],
      "name": "sendStringWithNativeDrop",
      "outputs": [],
      "stateMutability": "payable",
      "type": "function"
    },
    {
      "inputs": [
        {
          "internalType": "address",
          "name": "_delegate",
          "type": "address"
        }
      ],
      "name": "setDelegate",
      "outputs": [],
      "stateMutability": "nonpayable",
      "type": "function"
    },
    {
      "inputs": [
        {
          "components": [
            {
              "internalType": "uint32",
              "name": "eid",
              "type": "uint32"
            },
            {
              "internalType": "uint16",
              "name": "msgType",
              "type": "uint16"
            },
            {
              "internalType": "bytes",
              "name": "options",
              "type": "bytes"
            }
          ],
          "internalType": "struct EnforcedOptionParam[]",
          "name": "_enforcedOptions",
          "type": "tuple[]"
        }
      ],
      "name": "setEnforcedOptions",
      "outputs": [],
      "stateMutability": "nonpayable",
      "type": "function"
    },
    {
      "inputs": [
        {
          "internalType": "uint32",
          "name": "_eid",
          "type": "uint32"
        },
        {
          "internalType": "bytes32",
          "name": "_peer",
          "type": "bytes32"
        }
      ],
      "name": "setPeer",
      "outputs": [],
      "stateMutability": "nonpayable",
      "type": "function"
    },
    {
      "inputs": [
        {
          "internalType": "address",
          "name": "newOwner",
          "type": "address"
        }
      ],
      "name": "transferOwnership",
      "outputs": [],
      "stateMutability": "nonpayable",
      "type": "function"
    }
  ],
  "transactionHash": "0x84561de411b5a91477dc0edc3fa385fae94daebf384d1ec3feca2ba0772eb2d8",
  "args": [
    "0xbD672D1562Dd32C23B563C989d8140122483631d",
    "0xBa0Dd4142A6B7E3D836C65B21e060520D7c886d0"
  ],
  "numDeployments": 1,
  "solcInputHash": "670c0ecd21be7b7d21744f7ddc2f0df5",
  "bytecode": "0x60a06040523480156200001157600080fd5b50604051620021a7380380620021a783398101604081905262000034916200017c565b81818181806001600160a01b0381166200006857604051631e4fbdf760e01b81526000600482015260240160405180910390fd5b62000073816200010f565b506001600160a01b038083166080528116620000a257604051632d618d8160e21b815260040160405180910390fd5b60805160405163ca5eb5e160e01b81526001600160a01b0383811660048301529091169063ca5eb5e190602401600060405180830381600087803b158015620000ea57600080fd5b505af1158015620000ff573d6000803e3d6000fd5b50505050505050505050620001b4565b600080546001600160a01b038381166001600160a01b0319831681178455604051919092169283917f8be0079c531659141344cd1fd0a4f28419497f9722a3daafe3b4186f6b6457e09190a35050565b80516001600160a01b03811681146200017757600080fd5b919050565b600080604083850312156200019057600080fd5b6200019b836200015f565b9150620001ab602084016200015f565b90509250929050565b608051611fad620001fa6000396000818161022d0152818161043a015281816108cb01528181610bcb01528181610ec90152818161112b01526111e40152611fad6000f3fe60806040526004361061012a5760003560e01c80637d25a05e116100ab578063bc70b3541161006f578063bc70b3541461035d578063ca5eb5e11461037d578063d3b4866e1461039d578063f2fde38b146103d8578063f8db652f146103f8578063ff7bd03d1461041857600080fd5b80637d25a05e1461027c57806382413eac146102b45780638da5cb5b146102e4578063b98bd07014610302578063bb0b6a531461032257600080fd5b80633400288b116100f25780633400288b146101c857806336ef9620146101e85780635535d461146101fb5780635e280f111461021b578063715018a61461026757600080fd5b806313137d651461012f57806313a0bf2e1461014457806317442b70146101575780631f5e13341461017e57806332970710146101a6575b600080fd5b61014261013d3660046113c5565b610438565b005b610142610152366004611494565b6104f8565b34801561016357600080fd5b50604080516001815260026020820152015b60405180910390f35b34801561018a57600080fd5b50610193600181565b60405161ffff9091168152602001610175565b3480156101b257600080fd5b506101bb610594565b604051610175919061155d565b3480156101d457600080fd5b506101426101e3366004611570565b610622565b6101426101f636600461159a565b610638565b34801561020757600080fd5b506101bb61021636600461162c565b61068c565b34801561022757600080fd5b5061024f7f000000000000000000000000000000000000000000000000000000000000000081565b6040516001600160a01b039091168152602001610175565b34801561027357600080fd5b506101426106b0565b34801561028857600080fd5b5061029c610297366004611570565b6106c4565b6040516001600160401b039091168152602001610175565b3480156102c057600080fd5b506102d46102cf36600461165f565b6106cd565b6040519015158152602001610175565b3480156102f057600080fd5b506000546001600160a01b031661024f565b34801561030e57600080fd5b5061014261031d3660046116c5565b6106e2565b34801561032e57600080fd5b5061034f61033d366004611739565b60016020526000908152604090205481565b604051908152602001610175565b34801561036957600080fd5b506101bb610378366004611754565b6106fc565b34801561038957600080fd5b506101426103983660046117b4565b6108a4565b3480156103a957600080fd5b506103bd6103b83660046117e1565b61092a565b60408051825181526020928301519281019290925201610175565b3480156103e457600080fd5b506101426103f33660046117b4565b610988565b34801561040457600080fd5b506103bd610413366004611870565b6109c6565b34801561042457600080fd5b506102d46104333660046118ea565b610a59565b7f00000000000000000000000000000000000000000000000000000000000000006001600160a01b03163314610488576040516391ac5e4f60e01b81523360048201526024015b60405180910390fd5b602087018035906104a29061049d908a611739565b610a8f565b146104e0576104b46020880188611739565b60405163309afaf360e21b815263ffffffff90911660048201526020880135602482015260440161047f565b6104ef87878787878787610acb565b50505050505050565b6000610544836001600160a01b03841661053d620138808561053660408051600360f01b602082015281516002818303018152602290910190915290565b9190610af2565b9190610b5a565b90506000858560405160200161055b92919061192f565b60408051601f1981840301815282820190915234825260006020830152915061058a9088908390859033610b98565b5050505050505050565b600380546105a190611943565b80601f01602080910402602001604051908101604052809291908181526020018280546105cd90611943565b801561061a5780601f106105ef5761010080835404028352916020019161061a565b820191906000526020600020905b8154815290600101906020018083116105fd57829003601f168201915b505050505081565b61062a610ca3565b6106348282610cd0565b5050565b6000848460405160200161064d92919061192f565b60405160208183030381529060405290506104ef868261067089600188886106fc565b6040518060400160405280348152602001600081525033610b98565b6002602090815260009283526040808420909152908252902080546105a190611943565b6106b8610ca3565b6106c26000610d25565b565b60005b92915050565b6001600160a01b03811630145b949350505050565b6106ea610ca3565b6106346106f78284611a3c565b610d75565b63ffffffff8416600090815260026020908152604080832061ffff8716845290915281208054606092919061073090611943565b80601f016020809104026020016040519081016040528092919081815260200182805461075c90611943565b80156107a95780601f1061077e576101008083540402835291602001916107a9565b820191906000526020600020905b81548152906001019060200180831161078c57829003601f168201915b5050505050905080516000036107f95783838080601f0160208091040260200160405190810160405280939291908181526020018383808284376000920191909152509294506106da9350505050565b60008390036108095790506106da565b600283106108875761085084848080601f016020809104026020016040519081016040528093929190818152602001838380828437600092019190915250610e8792505050565b8061085e8460028188611b24565b60405160200161087093929190611b4e565b6040516020818303038152906040529150506106da565b8383604051639a6d49cd60e01b815260040161047f92919061192f565b6108ac610ca3565b60405163ca5eb5e160e01b81526001600160a01b0382811660048301527f0000000000000000000000000000000000000000000000000000000000000000169063ca5eb5e190602401600060405180830381600087803b15801561090f57600080fd5b505af1158015610923573d6000803e3d6000fd5b5050505050565b60408051808201909152600080825260208201526000868660405160200161095392919061192f565b604051602081830303815290604052905061097c88826109768b60018a8a6106fc565b86610eb3565b98975050505050505050565b610990610ca3565b6001600160a01b0381166109ba57604051631e4fbdf760e01b81526000600482015260240161047f565b6109c381610d25565b50565b60408051808201909152600080825260208201526000610a18856001600160a01b03861661053d620138808561053660408051600360f01b602082015281516002818303018152602290910190915290565b905060008787604051602001610a2f92919061192f565b6040516020818303038152906040529050610a4c89828487610eb3565b9998505050505050505050565b6000602082018035906001908390610a719086611739565b63ffffffff1681526020810191909152604001600020541492915050565b63ffffffff8116600090815260016020526040812054806106c75760405163f6ff4fb760e01b815263ffffffff8416600482015260240161047f565b6000610ad985870187611b76565b90506003610ae78282611c0f565b505050505050505050565b6060836003610b02826000610f94565b61ffff1614610b3657610b16816000610f94565b604051633a51740d60e01b815261ffff909116600482015260240161047f565b6000610b428585610ff1565b9050610b508660018361106b565b9695505050505050565b6060836003610b6a826000610f94565b61ffff1614610b7e57610b16816000610f94565b6000610b8a85856110d6565b9050610b508660028361106b565b610ba0611309565b6000610baf84600001516110ff565b602085015190915015610bc957610bc98460200151611127565b7f00000000000000000000000000000000000000000000000000000000000000006001600160a01b0316632637a450826040518060a001604052808b63ffffffff168152602001610c198c610a8f565b81526020018a815260200189815260200160008960200151111515815250866040518463ffffffff1660e01b8152600401610c55929190611cce565b60806040518083038185885af1158015610c73573d6000803e3d6000fd5b50505050506040513d601f19601f82011682018060405250810190610c989190611d95565b979650505050505050565b6000546001600160a01b031633146106c25760405163118cdaa760e01b815233600482015260240161047f565b63ffffffff8216600081815260016020908152604091829020849055815192835282018390527f238399d427b947898edb290f5ff0f9109849b1c3ba196a42e35f00c50a54b98b910160405180910390a15050565b600080546001600160a01b038381166001600160a01b0319831681178455604051919092169283917f8be0079c531659141344cd1fd0a4f28419497f9722a3daafe3b4186f6b6457e09190a35050565b60005b8151811015610e4c57610da7828281518110610d9657610d96611deb565b602002602001015160400151610e87565b818181518110610db957610db9611deb565b60200260200101516040015160026000848481518110610ddb57610ddb611deb565b60200260200101516000015163ffffffff1663ffffffff1681526020019081526020016000206000848481518110610e1557610e15611deb565b60200260200101516020015161ffff1661ffff1681526020019081526020016000209081610e439190611c0f565b50600101610d78565b507fbe4864a8e820971c0247f5992e2da559595f7bf076a21cb5928d443d2a13b67481604051610e7c9190611e01565b60405180910390a150565b600281015161ffff81166003146106345781604051639a6d49cd60e01b815260040161047f919061155d565b60408051808201909152600080825260208201527f00000000000000000000000000000000000000000000000000000000000000006001600160a01b031663ddc28c586040518060a001604052808863ffffffff168152602001610f1689610a8f565b8152602001878152602001868152602001851515815250306040518363ffffffff1660e01b8152600401610f4b929190611cce565b6040805180830381865afa158015610f67573d6000803e3d6000fd5b505050506040513d601f19601f82011682018060405250810190610f8b9190611e8c565b95945050505050565b6000610fa1826002611ebe565b83511015610fe85760405162461bcd60e51b8152602060048201526014602482015273746f55696e7431365f6f75744f66426f756e647360601b604482015260640161047f565b50016002015190565b60606001600160801b0382161561103957604080516001600160801b0319608086811b8216602084015285901b16603082015201604051602081830303815290604052611064565b6040516001600160801b0319608085901b1660208201526030015b6040516020818303038152906040525b9392505050565b606083600361107b826000610f94565b61ffff161461108f57610b16816000610f94565b84600161109c8551611209565b6110a7906001611ed1565b86866040516020016110bd959493929190611ef3565b6040516020818303038152906040529150509392505050565b6040516001600160801b0319608084901b16602082015260308101829052606090605001611054565b6000813414611123576040516304fb820960e51b815234600482015260240161047f565b5090565b60007f00000000000000000000000000000000000000000000000000000000000000006001600160a01b031663e4fe1d946040518163ffffffff1660e01b8152600401602060405180830381865afa158015611187573d6000803e3d6000fd5b505050506040513d601f19601f820116820180604052508101906111ab9190611f5a565b90506001600160a01b0381166111d4576040516329b99a9560e11b815260040160405180910390fd5b6106346001600160a01b038216337f000000000000000000000000000000000000000000000000000000000000000085611238565b600061ffff821115611123576040516306dfcc6560e41b8152601060048201526024810183905260440161047f565b604080516001600160a01b0385811660248301528416604482015260648082018490528251808303909101815260849091019091526020810180516001600160e01b03166323b872dd60e01b179052611292908590611298565b50505050565b600080602060008451602086016000885af1806112bb576040513d6000823e3d81fd5b50506000513d915081156112d35780600114156112e0565b6001600160a01b0384163b155b1561129257604051635274afe760e01b81526001600160a01b038516600482015260240161047f565b60405180606001604052806000801916815260200160006001600160401b0316815260200161134b604051806040016040528060008152602001600081525090565b905290565b60006060828403121561136257600080fd5b50919050565b60008083601f84011261137a57600080fd5b5081356001600160401b0381111561139157600080fd5b6020830191508360208285010111156113a957600080fd5b9250929050565b6001600160a01b03811681146109c357600080fd5b600080600080600080600060e0888a0312156113e057600080fd5b6113ea8989611350565b96506060880135955060808801356001600160401b038082111561140d57600080fd5b6114198b838c01611368565b909750955060a08a0135915061142e826113b0565b90935060c0890135908082111561144457600080fd5b506114518a828b01611368565b989b979a50959850939692959293505050565b803563ffffffff8116811461147857600080fd5b919050565b80356001600160801b038116811461147857600080fd5b6000806000806000608086880312156114ac57600080fd5b6114b586611464565b945060208601356001600160401b038111156114d057600080fd5b6114dc88828901611368565b90955093506114ef90506040870161147d565b915060608601356114ff816113b0565b809150509295509295909350565b60005b83811015611528578181015183820152602001611510565b50506000910152565b6000815180845261154981602086016020860161150d565b601f01601f19169290920160200192915050565b6020815260006110646020830184611531565b6000806040838503121561158357600080fd5b61158c83611464565b946020939093013593505050565b6000806000806000606086880312156115b257600080fd5b6115bb86611464565b945060208601356001600160401b03808211156115d757600080fd5b6115e389838a01611368565b909650945060408801359150808211156115fc57600080fd5b5061160988828901611368565b969995985093965092949392505050565b803561ffff8116811461147857600080fd5b6000806040838503121561163f57600080fd5b61164883611464565b91506116566020840161161a565b90509250929050565b60008060008060a0858703121561167557600080fd5b61167f8686611350565b935060608501356001600160401b0381111561169a57600080fd5b6116a687828801611368565b90945092505060808501356116ba816113b0565b939692955090935050565b600080602083850312156116d857600080fd5b82356001600160401b03808211156116ef57600080fd5b818501915085601f83011261170357600080fd5b81358181111561171257600080fd5b8660208260051b850101111561172757600080fd5b60209290920196919550909350505050565b60006020828403121561174b57600080fd5b61106482611464565b6000806000806060858703121561176a57600080fd5b61177385611464565b93506117816020860161161a565b925060408501356001600160401b0381111561179c57600080fd5b6117a887828801611368565b95989497509550505050565b6000602082840312156117c657600080fd5b8135611064816113b0565b8035801515811461147857600080fd5b600080600080600080608087890312156117fa57600080fd5b61180387611464565b955060208701356001600160401b038082111561181f57600080fd5b61182b8a838b01611368565b9097509550604089013591508082111561184457600080fd5b5061185189828a01611368565b90945092506118649050606088016117d1565b90509295509295509295565b60008060008060008060a0878903121561188957600080fd5b61189287611464565b955060208701356001600160401b038111156118ad57600080fd5b6118b989828a01611368565b90965094506118cc90506040880161147d565b925060608701356118dc816113b0565b9150611864608088016117d1565b6000606082840312156118fc57600080fd5b6110648383611350565b81835281816020850137506000828201602090810191909152601f909101601f19169091010190565b6020815260006106da602083018486611906565b600181811c9082168061195757607f821691505b60208210810361136257634e487b7160e01b600052602260045260246000fd5b634e487b7160e01b600052604160045260246000fd5b604051606081016001600160401b03811182821017156119af576119af611977565b60405290565b604051601f8201601f191681016001600160401b03811182821017156119dd576119dd611977565b604052919050565b60006001600160401b038311156119fe576119fe611977565b611a11601f8401601f19166020016119b5565b9050828152838383011115611a2557600080fd5b828260208301376000602084830101529392505050565b60006001600160401b0380841115611a5657611a56611977565b8360051b6020611a678183016119b5565b868152918501918181019036841115611a7f57600080fd5b865b84811015611b1857803586811115611a995760008081fd5b88016060368290031215611aad5760008081fd5b611ab561198d565b611abe82611464565b8152611acb86830161161a565b8682015260408083013589811115611ae35760008081fd5b929092019136601f840112611af85760008081fd5b611b063684358986016119e5565b90820152845250918301918301611a81565b50979650505050505050565b60008085851115611b3457600080fd5b83861115611b4157600080fd5b5050820193919092039150565b60008451611b6081846020890161150d565b8201838582376000930192835250909392505050565b600060208284031215611b8857600080fd5b81356001600160401b03811115611b9e57600080fd5b8201601f81018413611baf57600080fd5b6106da848235602084016119e5565b601f821115611c0a576000816000526020600020601f850160051c81016020861015611be75750805b601f850160051c820191505b81811015611c0657828155600101611bf3565b5050505b505050565b81516001600160401b03811115611c2857611c28611977565b611c3c81611c368454611943565b84611bbe565b602080601f831160018114611c715760008415611c595750858301515b600019600386901b1c1916600185901b178555611c06565b600085815260208120601f198616915b82811015611ca057888601518255948401946001909101908401611c81565b5085821015611cbe5787850151600019600388901b60f8161c191681555b5050505050600190811b01905550565b6040815263ffffffff8351166040820152602083015160608201526000604084015160a06080840152611d0460e0840182611531565b90506060850151603f198483030160a0850152611d218282611531565b60809690960151151560c08501525050506001600160a01b039190911660209091015290565b600060408284031215611d5957600080fd5b604051604081018181106001600160401b0382111715611d7b57611d7b611977565b604052825181526020928301519281019290925250919050565b600060808284031215611da757600080fd5b611daf61198d565b8251815260208301516001600160401b0381168114611dcd57600080fd5b6020820152611ddf8460408501611d47565b60408201529392505050565b634e487b7160e01b600052603260045260246000fd5b600060208083018184528085518083526040925060408601915060408160051b87010184880160005b83811015611e7e57888303603f190185528151805163ffffffff1684528781015161ffff16888501528601516060878501819052611e6a81860183611531565b968901969450505090860190600101611e2a565b509098975050505050505050565b600060408284031215611e9e57600080fd5b6110648383611d47565b634e487b7160e01b600052601160045260246000fd5b808201808211156106c7576106c7611ea8565b61ffff818116838216019080821115611eec57611eec611ea8565b5092915050565b60008651611f05818460208b0161150d565b6001600160f81b031960f888811b82169285019283526001600160f01b031960f089901b16600184015286901b1660038201528351611f4b81600484016020880161150d565b01600401979650505050505050565b600060208284031215611f6c57600080fd5b8151611064816113b056fea2646970667358221220d68adc0fe04876ebbd5becd864326fe112a3bb5206f9caacab6ff7b05df9522d64736f6c63430008160033",
  "devdoc": {
    "errors": {
      "OwnableInvalidOwner(address)": [
        {
          "details": "The owner is not a valid owner account. (eg. `address(0)`)"
        }
      ],
      "OwnableUnauthorizedAccount(address)": [
        {
          "details": "The caller account is not authorized to perform an operation."
        }
      ],
      "SafeCastOverflowedUintDowncast(uint8,uint256)": [
        {
          "details": "Value doesn't fit in an uint of `bits` size."
        }
      ],
      "SafeERC20FailedOperation(address)": [
        {
          "details": "An operation with an ERC-20 token failed."
        }
      ]
    },
    "kind": "dev",
    "methods": {
      "allowInitializePath((uint32,bytes32,uint64))": {
        "details": "This indicates to the endpoint that the OApp has enabled msgs for this particular path to be received.This defaults to assuming if a peer has been set, its initialized. Can be overridden by the OApp if there is other logic to determine this.",
        "params": {
          "origin": "The origin information containing the source endpoint and sender address."
        },
        "returns": {
          "_0": "Whether the path has been initialized."
        }
      },
      "combineOptions(uint32,uint16,bytes)": {
        "details": "If there is an enforced lzReceive option: - {gasLimit: 200k, msg.value: 1 ether} AND a caller supplies a lzReceive option: {gasLimit: 100k, msg.value: 0.5 ether} - The resulting options will be {gasLimit: 300k, msg.value: 1.5 ether} when the message is executed on the remote lzReceive() function.This presence of duplicated options is handled off-chain in the verifier/executor.",
        "params": {
          "_eid": "The endpoint ID.",
          "_extraOptions": "Additional options passed by the caller.",
          "_msgType": "The OAPP message type."
        },
        "returns": {
          "_0": "options The combination of caller specified options AND enforced options."
        }
      },
      "constructor": {
        "params": {
          "_endpoint": "The local chain's LayerZero Endpoint V2 address",
          "_owner": "The address permitted to configure this OApp"
        }
      },
      "isComposeMsgSender((uint32,bytes32,uint64),bytes,address)": {
        "details": "_origin The origin information containing the source endpoint and sender address.  - srcEid: The source chain endpoint ID.  - sender: The sender address on the src chain.  - nonce: The nonce of the message._message The lzReceive payload.Applications can optionally choose to implement separate composeMsg senders that are NOT the bridging layer.The default sender IS the OAppReceiver implementer.",
        "params": {
          "_sender": "The sender address."
        },
        "returns": {
          "_0": "isSender Is a valid sender."
        }
      },
      "lzReceive((uint32,bytes32,uint64),bytes32,bytes,address,bytes)": {
        "details": "Entry point for receiving messages or packets from the endpoint.Entry point for receiving msg/packet from the LayerZero endpoint.",
        "params": {
          "_executor": "The address of the executor for the received message.",
          "_extraData": "Additional arbitrary data provided by the corresponding executor.",
          "_guid": "The unique identifier for the received LayerZero message.",
          "_message": "The payload of the received message.",
          "_origin": "The origin information containing the source endpoint and sender address.  - srcEid: The source chain endpoint ID.  - sender: The sender address on the src chain.  - nonce: The nonce of the message."
        }
      },
      "nextNonce(uint32,bytes32)": {
        "details": "_srcEid The source endpoint ID._sender The sender address.The path nonce starts from 1. If 0 is returned it means that there is NO nonce ordered enforcement.Is required by the off-chain executor to determine the OApp expects msg execution is ordered.This is also enforced by the OApp.By default this is NOT enabled. ie. nextNonce is hardcoded to return 0.",
        "returns": {
          "nonce": "The next nonce."
        }
      },
      "oAppVersion()": {
        "returns": {
          "receiverVersion": "The version of the OAppReceiver.sol implementation.",
          "senderVersion": "The version of the OAppSender.sol implementation."
        }
      },
      "owner()": {
        "details": "Returns the address of the current owner."
      },
      "quoteSendString(uint32,string,bytes,bool)": {
        "params": {
          "_dstEid": "Destination chain's endpoint ID.",
          "_options": "Message execution options (e.g., for sending gas to destination).",
          "_payInLzToken": "Whether to return fee in ZRO token.",
          "_string": "The string to send."
        },
        "returns": {
          "fee": "A `MessagingFee` struct containing the calculated gas fee in either the native token or ZRO token."
        }
      },
      "quoteSendStringWithNativeDrop(uint32,string,uint128,address,bool)": {
        "params": {
          "_dstEid": "Destination chain's endpoint ID.",
          "_nativeDropAmount": "Amount of native gas to drop to receiver (in wei).",
          "_payInLzToken": "Whether to return fee in ZRO token.",
          "_receiver": "Address to receive the native drop.",
          "_string": "The string to send."
        },
        "returns": {
          "fee": "A `MessagingFee` struct containing the calculated gas fee."
        }
      },
      "renounceOwnership()": {
        "details": "Leaves the contract without owner. It will not be possible to call `onlyOwner` functions. Can only be called by the current owner. NOTE: Renouncing ownership will leave the contract without an owner, thereby disabling any functionality that is only available to the owner."
      },
      "sendString(uint32,string,bytes)": {
        "params": {
          "_dstEid": "Destination Endpoint ID (uint32)",
          "_options": "Execution options for gas on the destination (bytes)",
          "_string": "The string to send"
        }
      },
      "sendStringWithNativeDrop(uint32,string,uint128,address)": {
        "params": {
          "_dstEid": "Destination Endpoint ID (uint32)",
          "_nativeDropAmount": "Amount of native gas to drop to receiver (in wei)",
          "_receiver": "Address to receive the native drop (will be converted to bytes32)",
          "_string": "The string to send"
        }
      },
      "setDelegate(address)": {
        "details": "Only the owner/admin of the OApp can call this function.Provides the ability for a delegate to set configs, on behalf of the OApp, directly on the Endpoint contract.",
        "params": {
          "_delegate": "The address of the delegate to be set."
        }
      },
      "setEnforcedOptions((uint32,uint16,bytes)[])": {
        "details": "Sets the enforced options for specific endpoint and message type combinations.Only the owner/admin of the OApp can call this function.Provides a way for the OApp to enforce things like paying for PreCrime, AND/OR minimum dst lzReceive gas amounts etc.These enforced options can vary as the potential options/execution on the remote may differ as per the msgType. eg. Amount of lzReceive() gas necessary to deliver a lzCompose() message adds overhead you dont want to pay if you are only making a standard LayerZero message ie. lzReceive() WITHOUT sendCompose().",
        "params": {
          "_enforcedOptions": "An array of EnforcedOptionParam structures specifying enforced options."
        }
      },
      "setPeer(uint32,bytes32)": {
        "details": "Only the owner/admin of the OApp can call this function.Indicates that the peer is trusted to send LayerZero messages to this OApp.Set this to bytes32(0) to remove the peer address.Peer is a bytes32 to accommodate non-evm chains.",
        "params": {
          "_eid": "The endpoint ID.",
          "_peer": "The address of the peer to be associated with the corresponding endpoint."
        }
      },
      "transferOwnership(address)": {
        "details": "Transfers ownership of the contract to a new account (`newOwner`). Can only be called by the current owner."
      }
    },
    "version": 1
  },
  "userdoc": {
    "kind": "user",
    "methods": {
      "SEND()": {
        "notice": "Msg type for sending a string, for use in OAppOptionsType3 as an enforced option"
      },
      "allowInitializePath((uint32,bytes32,uint64))": {
        "notice": "Checks if the path initialization is allowed based on the provided origin."
      },
      "combineOptions(uint32,uint16,bytes)": {
        "notice": "Combines options for a given endpoint and message type."
      },
      "constructor": {
        "notice": "Initialize with Endpoint V2 and owner address"
      },
      "endpoint()": {
        "notice": "Retrieves the LayerZero endpoint associated with the OApp."
      },
      "isComposeMsgSender((uint32,bytes32,uint64),bytes,address)": {
        "notice": "Indicates whether an address is an approved composeMsg sender to the Endpoint."
      },
      "lastMessage()": {
        "notice": "Last string received from any remote chain"
      },
      "nextNonce(uint32,bytes32)": {
        "notice": "Retrieves the next nonce for a given source endpoint and sender address."
      },
      "oAppVersion()": {
        "notice": "Retrieves the OApp version information."
      },
      "peers(uint32)": {
        "notice": "Retrieves the peer (OApp) associated with a corresponding endpoint."
      },
      "quoteSendString(uint32,string,bytes,bool)": {
        "notice": "Quotes the gas needed to pay for the full omnichain transaction in native gas or ZRO token."
      },
      "quoteSendStringWithNativeDrop(uint32,string,uint128,address,bool)": {
        "notice": "Quotes the gas needed for sending a string with native drop."
      },
      "sendString(uint32,string,bytes)": {
        "notice": "Send a string to a remote OApp on another chain"
      },
      "sendStringWithNativeDrop(uint32,string,uint128,address)": {
        "notice": "Send a string to a remote OApp on another chain with native drop"
      },
      "setDelegate(address)": {
        "notice": "Sets the delegate address for the OApp."
      },
      "setPeer(uint32,bytes32)": {
        "notice": "Sets the peer address (OApp instance) for a corresponding endpoint."
      }
    },
    "version": 1
  },
  "storageLayout": {
    "storage": [
      {
        "astId": 3065,
        "contract": "contracts/MyOApp.sol:MyOApp",
        "label": "_owner",
        "offset": 0,
        "slot": "0",
        "type": "t_address"
      },
      {
        "astId": 1909,
        "contract": "contracts/MyOApp.sol:MyOApp",
        "label": "peers",
        "offset": 0,
        "slot": "1",
        "type": "t_mapping(t_uint32,t_bytes32)"
      },
      {
        "astId": 2505,
        "contract": "contracts/MyOApp.sol:MyOApp",
        "label": "enforcedOptions",
        "offset": 0,
        "slot": "2",
        "type": "t_mapping(t_uint32,t_mapping(t_uint16,t_bytes_storage))"
      },
      {
        "astId": 5665,
        "contract": "contracts/MyOApp.sol:MyOApp",
        "label": "lastMessage",
        "offset": 0,
        "slot": "3",
        "type": "t_string_storage"
      }
    ],
    "types": {
      "t_address": {
        "encoding": "inplace",
        "label": "address",
        "numberOfBytes": "20"
      },
      "t_bytes32": {
        "encoding": "inplace",
        "label": "bytes32",
        "numberOfBytes": "32"
      },
      "t_bytes_storage": {
        "encoding": "bytes",
        "label": "bytes",
        "numberOfBytes": "32"
      },
      "t_mapping(t_uint16,t_bytes_storage)": {
        "encoding": "mapping",
        "key": "t_uint16",
        "label": "mapping(uint16 => bytes)",
        "numberOfBytes": "32",
        "value": "t_bytes_storage"
      },
      "t_mapping(t_uint32,t_bytes32)": {
        "encoding": "mapping",
        "key": "t_uint32",
        "label": "mapping(uint32 => bytes32)",
        "numberOfBytes": "32",
        "value": "t_bytes32"
      },
      "t_mapping(t_uint32,t_mapping(t_uint16,t_bytes_storage))": {
        "encoding": "mapping",
        "key": "t_uint32",
        "label": "mapping(uint32 => mapping(uint16 => bytes))",
        "numberOfBytes": "32",
        "value": "t_mapping(t_uint16,t_bytes_storage)"
      },
      "t_string_storage": {
        "encoding": "bytes",
        "label": "string",
        "numberOfBytes": "32"
      },
      "t_uint16": {
        "encoding": "inplace",
        "label": "uint16",
        "numberOfBytes": "2"
      },
      "t_uint32": {
        "encoding": "inplace",
        "label": "uint32",
        "numberOfBytes": "4"
      }
    }
  }
}